:100000000C9435000C945D000C945D000C945D0024
:100010000C945D000C945D000C945D000C945D00EC
:100020000C945D000C945D000C945D000C945D00DC
:100030000C945D000C945D000C945D000C945D00CC
:100040000C9433040C945D000C94C9000C941701BB
:100050000C945D000C945D000C945D000C945D00AC
:100060000C945D000C945D007C0211241FBECFEF48
:10007000D8E0DEBFCDBF11E0A0E0B1E0E6E1FAE0FC
:1000800002C005900D92AE34B107D9F712E0AEE48C
:10009000B1E001C01D92A130B107E1F710E0CAE65E
:1000A000D0E004C02297FE010E940505C836D107A2
:1000B000C9F70E94D2020C9409050C94000086ED49
:1000C00091E040E855E260E070E00E94520186ED68
:1000D00091E00E947A028823D1F386ED91E060E0FE
:1000E00071E00E942004089586ED91E060913C014A
:1000F0000E943A0286ED91E06CE171E00E941D04DD
:1001000060913C0170913D0186ED91E04AE050E044
:100110000E94EB0386ED91E064E271E00E941D0411
:1001200060913C0170913D0186ED91E040E150E02D
:100130000E94EB0386ED91E06CE271E00E941D04E9
:1001400060913C0170913D0186ED91E048E050E006
:100150000E94EB0386ED91E064E371E00E941D04D0
:1001600060913C0170913D0186ED91E042E050E0EC
:100170000E94FE0380913C0190913D018E379105D4
:1001800009F4FFCF019690933D0180933C010895BF
:1001900008951F920F920FB60F9211242F933F9341
:1001A0004F938F939F93EF93FF938091C00082FDB5
:1001B0001DC04091C60020918E0130918F012F5FAC
:1001C0003F4F2F73307080919001909191012817CB
:1001D000390771F0E0918E01F0918F01E25BFE4FE3
:1001E000408330938F0120938E0102C08091C6001E
:1001F000FF91EF919F918F914F913F912F910F9090
:100200000FBE0F901F901895E091E201F091E3016D
:10021000E05CFF4F8191919120813181821B930B92
:100220008F739070892B11F00E94C80008951F925F
:100230000F920FB60F9211242F933F938F939F939A
:10024000EF93FF932091D2013091D3018091D4019B
:100250009091D5012817390731F48091C1008F7D25
:100260008093C10014C0E091D401F091D501EE5605
:10027000FE4F20818091D4019091D50101968F731A
:1002800090709093D5018093D4012093C600FF9184
:10029000EF919F918F913F912F910F900FBE0F90F3
:1002A0001F901895AF92BF92DF92EF92FF920F933B
:1002B0001F93CF93DF93EC017A018B01DD24D3945C
:1002C00091E0A92EB12CEC89FD89DD2069F0C501F2
:1002D00008A002C0880F991F0A94E2F7808360E8A3
:1002E00074E88EE190E005C0108260E472E48FE073
:1002F00090E0A80197010E94E10421503040404065
:100300005040569547953795279580E1203038071E
:1003100020F0DD2011F0DD24D6CFE889F989308383
:10032000EA89FB89208319A2EE89FF89408121E0B7
:1003300030E0C9010C8C02C0880F991F0A94E2F7C3
:10034000482B4083EE89FF894081C9010D8C02C092
:10035000880F991F0A94E2F7482B4083EE89FF89A2
:100360004081C9010E8C02C0880F991F0A94E2F7E0
:10037000482B4083EE89FF8980810F8C02C0220FB9
:10038000331F0A94E2F7209528232083DF91CF9131
:100390001F910F91FF90EF90DF90BF90AF90089565
:1003A000DC011C96ED91FC911D97E05CFF4F2191C3
:1003B000319180819181281B390B2F733070C901D5
:1003C0000895DC011C96ED91FC911D97E05CFF4FB8
:1003D00020813181E054F040DF01AE5BBF4F8D9151
:1003E0009C9111972817390719F42FEF3FEF07C099
:1003F0008D919C91E80FF91F8081282F30E0C90171
:100400000895DC011C96ED91FC911D97E05CFF4F77
:1004100020813181E054F040DF01AE5BBF4F8D9110
:100420009C9111972817390719F42FEF3FEF10C04F
:100430008D919C911197E80FF91F20818D919C91CE
:10044000119701968F73907011969C938E9330E064
:10045000C9010895DC0191968C919197882339F018
:100460005496ED91FC915597808186FFF9CF919636
:100470001C920895CF93DF93EC01EE85FF85E05C3D
:10048000FF4F20813181E054F0402F5F3F4F2F73A9
:100490003070DF01AE5BBF4F8D919C911197281793
:1004A0003907D1F3E05CFF4F80819181E054F04047
:1004B000E80FF91F6083EE85FF85E05CFF4F318315
:1004C0002083EE89FF89208181E090E00F8C02C0BB
:1004D000880F991F0A94E2F7282B208381E089A3D3
:1004E000EC89FD8980818064808381E090E0DF91E8
:1004F000CF91089581E008951092D9011092D8010A
:1005000088EE93E0A0E0B0E08093DA019093DB0105
:10051000A093DC01B093DD0182E491E09093D701D8
:100520008093D6018EE491E09093E3018093E20101
:1005300082E991E09093E5018093E40185EC90E0FD
:100540009093E7018093E60184EC90E09093E901B9
:100550008093E80180EC90E09093EB018093EA01B6
:1005600081EC90E09093ED018093EC0182EC90E0BF
:100570009093EF018093EE0186EC90E09093F1016F
:100580008093F00184E08093F20183E08093F30193
:1005900087E08093F40185E08093F50181E080930A
:1005A000F6010895CF93DF930E9487040E945F00B5
:1005B000C4E0D1E00E9474002097E1F30E9404019E
:1005C000F9CFCF92DF92EF92FF920F931F93CF93C9
:1005D000DF937C016B018A01C0E0D0E00FC0D6013F
:1005E0006D916D01D701ED91FC910190F081E02DAD
:1005F000C7010995C80FD91F0150104001151105F9
:1006000071F7CE01DF91CF911F910F91FF90EF9085
:10061000DF90CF900895EF92FF920F931F938C017C
:10062000DC01ED91FC910190F081E02D6DE00995E8
:100630007C01D801ED91FC910190F081E02DC80181
:100640006AE009959C012E0D3F1DC9011F910F9174
:10065000FF90EF900895CF93DF93EC016115710542
:1006600019F420E030E00FC0DB010D900020E9F725
:100670001197A61BB70BE881F9810280F381E02D69
:10068000AD0109959C01C901DF91CF9108954F9269
:100690005F927F928F929F92AF92BF92CF92DF92A2
:1006A000EF92FF920F931F93DF93CF93CDB7DEB7F7
:1006B000A1970FB6F894DEBF0FBECDBF2C01742EEC
:1006C000CB01223008F42AE019A231E2C32ED12C4A
:1006D000CC0EDD1E822E9924AA24BB24672D752FF3
:1006E000A50194010E94E10479018A01C801B701C2
:1006F000A50194010E94C204472D461B0894C1081D
:10070000D1084A3014F4405D01C0495CF6014083D1
:10071000E114F1040105110521F07E2C5F2DC801C3
:10072000DDCFC201B6010E942B03A1960FB6F8944B
:10073000DEBF0FBECDBFCF91DF911F910F91FF9014
:10074000EF90DF90CF90BF90AF909F908F907F9071
:100750005F904F900895CF92DF92EF92FF920F93A8
:100760001F93CF93DF93EC016A017B0121153105C3
:1007700041F4E881F9810190F081E02D642F099521
:100780001FC02A303105D1F477FF17C0E881F98105
:100790000190F081E02D6DE209958C0144275527E9
:1007A000BA014C195D096E097F09CE012AE00E9449
:1007B00047039801280F391F04C02AE00E9447030D
:1007C0009C01C901DF91CF911F910F91FF90EF9094
:1007D000DF90CF900895EF92FF920F931F937B01CC
:1007E0009A010027F7FC0095102FB801A7010E947D
:1007F000AB031F910F91FF90EF900895CF92DF927E
:10080000EF92FF920F931F936C017B019A010027D7
:10081000F7FC0095102FB801A7010E94AB038C01D3
:10082000C6010E940B03080F191FC8011F910F91E9
:10083000FF90EF90DF90CF9008950E942B030895D2
:10084000EF92FF920F931F937C010E942B038C0168
:10085000C7010E940B03080F191FC8011F910F91B8
:10086000FF90EF9008951F920F920FB60F921124F0
:100870002F933F934F935F936F937F938F939F93A8
:10088000AF93BF932091FC013091FD014091FE0197
:100890005091FF0170910002DA01C9010296A11D79
:1008A000B11D672F6A5F6D3730F06D57DA01C901EE
:1008B0000396A11DB11D609300028093FC019093EB
:1008C000FD01A093FE01B093FF018091F80190918A
:1008D000F901A091FA01B091FB010196A11DB11D92
:1008E0008093F8019093F901A093FA01B093FB0172
:1008F000BF91AF919F918F917F916F915F914F9138
:100900003F912F910F900FBE0F901F9018957894E4
:1009100084B5826084BD84B5816084BD85B5826004
:1009200085BD85B5816085BDEEE6F0E080818160A2
:100930008083E1E8F0E010828081826080838081A2
:1009400081608083E0E8F0E0808181608083E1EB7A
:10095000F0E0808184608083E0EBF0E08081816062
:100960008083EAE7F0E08081846080838081826018
:100970008083808181608083808180688083109201
:10098000C1000895629FD001739FF001829FE00D26
:10099000F11D649FE00DF11D929FF00D839FF00DFE
:1009A000749FF00D659FF00D9927729FB00DE11DAA
:1009B000F91F639FB00DE11DF91FBD01CF01112487
:1009C0000895A1E21A2EAA1BBB1BFD010DC0AA1F90
:1009D000BB1FEE1FFF1FA217B307E407F50720F0A8
:1009E000A21BB30BE40BF50B661F771F881F991F23
:1009F0001A9469F760957095809590959B01AC016C
:100A0000BD01CF010895EE0FFF1F0590F491E02D79
:060A10000994F894FFCFE9
:100A16004153434949205461626C65207E204368F6
:100A260061726163746572204D6170002C2064658B
:100A3600633A20002C206865783A20002C206F63EA
:100A4600743A20002C2062696E3A200021000000D2
:0E0A560000003A02E102D0010102E1012A0291
:00000001FF
