:100000009BC00000B5C00000B3C00000B1C000003C
:10001000AFC00000ADC00000ABC00000A9C0000030
:10002000A7C00000A5C00000F8C50000BCC60000C5
:100030009FC000009DC000009BC0000099C0000050
:1000400097C0000095C0000093C0000091C0000060
:100050008FC00000D8C200008BC0000089C0000023
:1000600087C0000085C0000083C0000081C0000080
:100070007FC000007DC000007BC0000079C0000090
:1000800077C0000075C0000073C0000071C00000A0
:1000900076C300006DC000006BC0000069C00000A6
:1000A00067C0000065C0000063C000001C034C0076
:1000B000550046004100200043004400430020005A
:1000C000440065006D006F000000180344006500E7
:1000D00061006E002000430061006D006500720049
:1000E000610000000403090409023E00020100C08F
:1000F000320904000001020201000524001001047D
:100100002402060524060001070582030800FF09F2
:10011000040100020A0000000705040210000507A0
:100120000583021000051201100102000008EB0314
:10013000442000000102DC0111241FBECFEFDAE0F1
:10014000DEBFCDBF11E0A0E0B1E0ECE6F7E102C018
:1001500005900D92A23AB107D9F713E0A2EAB1E0F7
:1001600001C01D92A436B107E1F7C9D00C94B40BBD
:1001700047CFFC01A081B1816C9380819181019670
:1001800091838083268137818217930721F48481AC
:100190009581918380832FB7F8948285938501960A
:1001A000938782872FBF0895FC01A281B3818D912F
:1001B000B383A28326813781A217B30721F4248158
:1001C0003581338322839FB7F8942285338521506C
:1001D0003109338722879FBF0895982F90539A3013
:1001E00030F09151963010F4965F01C00895892F38
:1001F000089584B7877F84BF88E10FB6F894809311
:100200006000109260000FBE90E080E80FB6F89496
:1002100080936100909361000FBEE7D4ECEBF0E0B7
:100220008081846080831092B90080E28093B8005E
:1002300082E084BD93E095BD80936E008CE787BD1E
:1002400080E184B908950895089580E091E00C94C8
:100250005A0980E091E00C944D0A2FB7F8948091F0
:100260005503909156032FBF892BB9F38BE493E08C
:100270009BDF90E00895CF93DF93EFDFC82FEDDF92
:10028000D82F8C2FAADFC82F8D2FA7DF8F7090E17A
:10029000C99F800D1124DF91CF910895682F8FE3BE
:1002A00093E067CFCF92DF92FF920F931F93CF938C
:1002B000DF931F92CDB7DEB7F82EC82ED92E860158
:1002C00006C0F80181918F019983E8DF9981AF2DF4
:1002D000B92FFD0101900020E9F73197EA1BFB0BD4
:1002E00098012C193D092E173F0758F30F90DF9105
:1002F000CF911F910F91FF90DF90CF900895CF93F2
:10030000DF93CDB7DEB7CF56D1090FB6F894DEBF75
:100310000FBECDBF6EDFEBE4F3E04FB7F89482E1A0
:1003200092E091838083938382839583848382E99F
:1003300092E09783868320E830E031872087138618
:1003400012864FBFEFE3F3E04FB7F89484E992E0F1
:1003500091838083938382839583848384E193E074
:100360009783868331872087138612864FBF8BB190
:1003700080638F7D8BB97894589A599A3E9A469AA1
:1003800094E6892ECC24C394D12CCC0EDD1E34E906
:10039000932E8E010B591F4F60DFF601282D11920D
:1003A0002A95E9F78536910509F454C044F48A3357
:1003B000910509F45EC08136910571F73AC0823724
:1003C0009105E9F08737910539F78BE191E06ADF14
:1003D0006AE080E20E94FE0A8111DECF80E20E9484
:1003E000600B91E4892FE0969FAFE0970E94600B2D
:1003F000E0969FADE0979F5F9C35A1F737C087E2FD
:1004000091E050DF6AE080E20E94FE0A8111C4CFD1
:1004100080E10E94600B91E6892FE0969FAFE09704
:100420000E94600BE0969FADE0979F5F9C37A1F71D
:100430001DC083E391E036DF6AE080E20E94FE0A9D
:100440008111AACF80E40E94600B80E10E94600BC2
:1004500080E20AC08FE391E025DF6AE080E20E943B
:10046000FE0A811199CF80E30E94600B9092BC003C
:1004700093CF10923E03FFDE782EFDDE682EFBDE6A
:10048000A82EF9DE811188CF8BE491E00BDF8AE0A2
:10049000B82EF8012B2D11922A95E9F74AE050E089
:1004A000B801872D90E00E94710B8CE7F7DEC80140
:1004B000F9DE8CE7F3DE8AE0F1DE8DE0EFDE83E546
:1004C00091E0F0DEF8012B2D11922A95E9F7809149
:1004D0005303909154034FB7F894209155033091F2
:1004E00056034FBF4AE050E0B801821B930B0E94B5
:1004F000710B8CE7D3DEC801D5DE8CE7CFDE8AE056
:10050000CDDE8DE0CBDE8CE691E0CCDEF8012B2D4C
:1005100011922A95E9F7E0914703F09148038FB7CC
:10052000F8942091490330914A038FBF4AE050E08C
:10053000B801CF01821B930B0E94710B8CE7AEDEDA
:10054000C801B0DE8CE7AADE8AE0A8DE8DE0A6DE78
:1005500085E891E0A7DEF8012B2D11922A95E9F7A5
:100560004AE050E0B80180E090E00E94710B8CE717
:1005700095DEC80197DE8CE791DE8AE08FDE8DE0A4
:100580008DDE8CE891E08EDEF8011192BA94E9F7E5
:10059000F62CE12C4AE050E0B801C7018A290E94FC
:1005A000710B8CE77BDEC8017DDE8CE777DE8AE0AD
:1005B00075DE8DE073DEF601282D11922A95E9F79C
:1005C000560109C083E6871518F055DEF5018083D2
:1005D000FFEFAF1ABF0A8A2D8C19871598F386E9A9
:1005E00091E060DE8AE05ADE8DE058DE44DE8091E4
:1005F0003E03882331F083E651DE8AE04FDE8DE052
:100600004DDE2BDEC9CE1F920F920FB60F92112432
:100610002F933F934F935F936F937F938F939F930A
:10062000AF93BF93CF93EF93FF93CFB7F89480919D
:10063000A2019091A30101969093A3018093A2013E
:100640008091A2019091A30187709927892B21F5B0
:1006500080E091E0ABD612D685B190E1892785B9CB
:1006600080E091E0B2D6892B39F080E091E0DDD6D0
:10067000682F8BE493E07DDD2FB7F89480914903D8
:1006800090914A032FBF892B39F08FE393E08CDDE3
:10069000682F80E091E033D68091A2019091A30170
:1006A000883E934020F01092A3011092A201CFBF88
:1006B000FF91EF91CF91BF91AF919F918F917F91DA
:1006C0006F915F914F913F912F910F900FBE0F90BF
:1006D0001F901895292F33272230310539F0233008
:1006E000310549F02130310521F128C0EEE3F0E079
:1006F00088EE90E027C099278130910561F0823023
:10070000910581F0892BD1F4E4EEF0E0E491F0E082
:1007100084EE90E017C0EAECF0E0E491F0E08AECBF
:1007200090E010C0ECEAF0E0E491F0E08CEA90E0B8
:1007300009C0E2E1F0E086E291E004C0E0E0F0E030
:1007400080E090E0DA018D939C93CF010895882397
:1007500011F085EC01C085E88093BC00089585ED1B
:100760008093BC008091BC0084FDFCCF1092AD0151
:10077000089585EC8093BC001092AD0108951F92FE
:100780000F920FB60F9211242F933F934F935F93C5
:100790006F937F938F939F93AF93BF93EF93FF9349
:1007A0008091B900887F803609F4A4C058F588325A
:1007B00009F45BC090F4803109F452C038F4882306
:1007C00009F4F6C0883009F0F6C04AC0883109F44F
:1007D0004CC0803209F0EFC05CC0803409F46BC0BB
:1007E00038F4803309F455C0883309F0E4C054C0AC
:1007F000803509F454C0883509F465C0883409F09F
:10080000DAC0D8C0883909F4A5C0A8F4883709F43B
:1008100071C038F4883609F46DC0803709F0CBC058
:1008200069C0883809F496C0803909F469C08038F5
:1008300009F0C1C065C0803B09F48FC038F4803A2C
:1008400009F46FC0883A09F0B6C087C0803C09F44B
:10085000AAC0883C09F4A7C0883B09F0ACC092C08C
:100860008091AC018093BB0012C09091A90180914E
:10087000A8019817A0F58091A901E82FF0E0E255B2
:10088000FE4F90819093BB008F5F8093A90181E020
:1008900062C08093A4018EC08093A40159C080914E
:1008A000A9019091BB00E82FF0E0E255FE4F908344
:1008B0008F5F8093A9019091A9018091A801981759
:1008C00008F048C0E4CF8091A9019091BB00E82FC7
:1008D000F0E0E255FE4F90838F5F8093A9018091F5
:1008E000AB01811167C081E08093AA0184EA809303
:1008F000BC005BC083E08093AD011092A501C7CF1F
:100900008091A501803230F58091A5019091BB00C6
:10091000E82FF0E0EE50FE4F90838F5F8093A501AB
:10092000B6CF8091A501803230F4E091A501F0E0CE
:10093000EE50FE4F108213DF6091A501E091EE01B1
:10094000F091EF0170E082EF91E009951092A5011E
:1009500010DF31C080E0FBDE2EC084E08093AD016B
:100960001092A7011092A601E091F001F091F1011F
:1009700009958091A601811105C081E08093A601AF
:100980001092CE018091A701E82FF0E0E253FE4FD4
:1009900090819093BB008F5F8093A7019091A701F6
:1009A0008091A6018CCF81E0D2DE1092AD0103C010
:1009B0001092A401D4DEFF91EF91BF91AF919F916E
:1009C0008F917F916F915F914F913F912F910F90F8
:1009D0000FBE0F901F901895982F2CC09093E90090
:1009E000981739F07091EC002091ED005091F000D3
:1009F00003C0242F762F50E021FD02C09F5F1AC054
:100A00003091EB003E7F3093EB003091ED003D7F65
:100A10003093ED003091EB0031603093EB00709338
:100A2000EC002093ED005093F0002091EE0027FDA4
:100A3000E5CF07C0973090F28F708093E90081E096
:100A4000089580E008950F931F93CF93DF93062FAF
:100A5000EC0110E02FC09881911103C01F5F259613
:100A600029C02C81E981FA817B81892F8F708730A1
:100A700010F080E022C0223010F056E001C052E0B9
:100A800028E030E040E003C04F5F220F331F2E17F5
:100A90003F07D0F34295407F452B692F661F66279D
:100AA000661F90E4799F90011124622B95DF8111DC
:100AB000D5CFDFCF1013CFCF81E0DF91CF911F9142
:100AC0000F91089580915C0387FD05C08091E80037
:100AD00080FF0EC012C08091E80082FD05C08091A9
:100AE0005B038111F8CF08958091E8008B7708C0EF
:100AF00080915B038111EACF08958091E8008E77A1
:100B00008093E80008958091E4009091E50045E627
:100B10002091EC0020FD1FC023C020915B03222305
:100B200091F0253091F02091EB0025FD10C020912F
:100B3000E4003091E5002817390751F34150C9010D
:100B400039F784E0089582E0089583E0089581E014
:100B5000089580E008952091E80020FFDECFF9CFCE
:100B60002091E80022FFD9CFF4CF0F931F93CF93AA
:100B7000DF9346D04DD0C8EDD0E088818F77888351
:100B800088818068888388818F7D888319BC1092D2
:100B90005B0310925703109259031092580300EE12
:100BA00010E0F80180818B7F808388818160888359
:100BB00042E060E080E010DFE1EEF0E080818E7FD7
:100BC0008083E2EEF0E080818160808380818860B4
:100BD0008083F80180818E7F808388818061888313
:100BE000DF91CF911F910F910895E7EDF0E08081A3
:100BF0008160808384E082BF81E080935A03B5CF17
:100C0000E8EDF0E080818E7F80831092E20008950D
:100C10001092DA001092E10008951F920F920FB621
:100C20000F9211242F933F934F935F936F937F9372
:100C30008F939F93AF93BF93EF93FF938091E100C6
:100C400082FF0AC08091E20082FF06C08091E1002D
:100C50008B7F8093E10011D38091DA0080FF1BC06D
:100C60008091D80080FF17C08091DA008E7F80933A
:100C7000DA008091D90019BC80FF0AC082E089BDEA
:100C800009B400FEFDCF81E080935B03DCDA03C092
:100C900010925B03D9DA8091E10080FF18C0809147
:100CA000E20080FF14C08091E2008E7F8093E2001A
:100CB0008091E20080618093E2008091D8008062A0
:100CC0008093D80019BC85E080935B03D6D28091D5
:100CD000E10084FF2CC08091E20084FF28C019BC91
:100CE00082E089BD09B400FEFDCF8091D8008F7DE0
:100CF0008093D8008091E1008F7E8093E100809105
:100D0000E2008F7E8093E2008091E2008160809318
:100D1000E20080915703811104C08091E30087FFB6
:100D200002C084E001C081E080935B03A6D2809181
:100D3000E10083FF27C08091E20083FF23C0809100
:100D4000E100877F8093E10082E080935B03109253
:100D500057038091E1008E7F8093E1008091E20053
:100D60008E7F8093E2008091E20080618093E200B8
:100D700042E060E080E030DE8091F00088608093A7
:100D8000F0007BD2FF91EF91BF91AF919F918F9136
:100D90007F916F915F914F913F912F910F900FBE77
:100DA0000F901F9018951F920F920FB60F9211245B
:100DB0002F933F934F935F936F937F938F939F9363
:100DC000AF93BF93CF93EF93FF938091E9008F7020
:100DD0009091EC0090FF02C090E801C090E0C92F14
:100DE000C82B1092E9008091F000877F8093F0007B
:100DF0007894DBD01092E9008091F00088608093B5
:100E0000F000CF70C093E900FF91EF91CF91BF91B7
:100E1000AF919F918F917F916F915F914F913F9192
:100E20002F910F900FBE0F901F9018954091620365
:100E3000509163034617570748F06115710539F45F
:100E40004091E8004E774093E80001C0BA01FC01F0
:100E500040E033C080915B03882309F442C08530B1
:100E600009F441C08091E80083FD39C08091E80019
:100E700082FD2FC08091E80080FF1FC09091F30099
:100E80008091F200392F20E0A901482BCA0106C049
:100E900041914093F100615071090196611571050E
:100EA00019F088309105A0F341E0089709F040E07F
:100EB0008091E8008E778093E8006115710551F606
:100EC0004111C8CF06C080915B03882351F0853063
:100ED00051F08091E80082FFF6CF80E0089581E034
:100EE000089582E0089583E008954091620350914F
:100EF00063034617570748F06115710539F44091AF
:100F0000E8004E774093E80001C0BA01FC0140E0E0
:100F100034C080915B03882309F443C0853009F411
:100F200042C08091E80083FD3AC08091E80082FDD4
:100F300030C08091E80080FF20C09091F300809144
:100F4000F200392F20E0A901482BCA0107C04491C3
:100F50004093F10031966150710901966115710558
:100F600019F08830910598F341E0089709F040E0C6
:100F70008091E8008E778093E8006115710549F64D
:100F80004111C7CF06C080915B03882351F08530A3
:100F900051F08091E80082FFF6CF80E0089581E073
:100FA000089582E0089583E00895EF92FF920F93F1
:100FB0001F93CF93DF93CDB7DEB7AC970FB6F894FE
:100FC000DEBF0FBECDBFECE5F3E08091F100819371
:100FD00023E0E436F207C9F73CD98091E80083FFAB
:100FE00031C180915C0390915D03953009F487C015
:100FF00038F49130B1F170F0933009F023C131C071
:10100000983009F4F4C0993009F400C1963009F021
:1010100019C19CC0803821F0823809F013C108C082
:101020008091580390915903992389F082600FC0F1
:1010300080916003909161038F7099278093E900FC
:101040008091EB0085FB882780F91092E900909150
:10105000E800977F9093E8008093F1001092F100F0
:10106000D1C0882319F0823009F0ECC08F7121F0D3
:10107000823009F0E7C00BC080915E03813009F037
:10108000E1C0933009F080E0809359032FC0809134
:101090005E0381112BC080916003909161038F707A
:1010A0009927009709F4CEC08093E9002091EB00C6
:1010B00020FF1CC020915D03233021F48091EB00C0
:1010C000806212C09091EB0090619093EB0021E060
:1010D00030E001C0220F8A95EAF72093EA001092CF
:1010E000EA008091EB0088608093EB001092E900A9
:1010F0008091E800877F8093E800E4DCA3C0811141
:10110000A1C000915E0310915F030F771127E02EBD
:10111000FFB6F8948091E800877F8093E800D2DCE6
:101120008091E80080FFFCCF8091E3008078802BE5
:101130008093E30080688093E300EE2011F083E069
:1011400001C082E080935B03FFBE7CC08058823088
:1011500008F078C080915E0390915F038C3D23E09E
:10116000920771F583E08A838AE289834FB7F89406
:10117000DE01139620E03EE051E2E32FF0E05093D1
:101180005700E49120FF03C0E295EF703F5FEF70DE
:101190008E2F90E0EA3010F0C79601C0C0968D9374
:1011A0009D932F5F243149F74FBF8091E800877FDF
:1011B0008093E8006AE270E0CE01019637DE11C04C
:1011C000AE01455D5F4F6091600384DA0097D1F115
:1011D0002091E800277F2093E800BC018BA59CA507
:1011E00084DE8091E8008B778093E8002BC0803804
:1011F00049F58091E800877F8093E800809157034C
:101200008093F1008091E8008E7775CF81111AC02C
:1012100090915E039230B0F48091E800877F8093D4
:10122000E800909357034EDC80915703811104C06E
:101230008091E30087FF02C084E001C081E08093D9
:101240005B0303D88091E80083FF0AC08091EB0024
:1012500080628093EB008091E800877F8093E800B4
:10126000AC960FB6F894DEBF0FBECDBFDF91CF9125
:101270001F910F91FF90EF9008950895CF93809163
:101280005B038823A9F08091E9008F709091EC00B6
:1012900090FF02C090E801C090E0C92FC82B1092C7
:1012A000E9008091E80083FD80DECF70C093E90003
:1012B000CF910895CF93DF93EC014096FC018BE032
:1012C000DF011D928A95E9F782E08C83898783E0AC
:1012D0008E8761E0CE010196B6DB882361F061E084
:1012E000CE010696B0DB882331F061E0CE010B968B
:1012F000DF91CF91A8CB80E0DF91CF910895CF937C
:10130000C62F20915B032430F1F4FC0144895589F8
:1013100066897789452B462B472BA9F081818F70F1
:101320008093E9008091E80085FF04C0C093F1003C
:1013300080E00AC08091E8008E778093E800E3DBCC
:101340008823A1F301C082E0CF91089520915B032F
:10135000243051F5FC014489558966897789452BEC
:10136000462B472B09F181818F708093E9003091E2
:10137000F3002091F200932F80E0822B892B11F44F
:1013800080E008959091E8008091E8008E77809346
:10139000E80095FDF5CFB7DB811107C09091E8001B
:1013A0009E779093E800089582E0089520915B0372
:1013B000243051F4FC014489558966897789452B8D
:1013C000462B472B09F0C2CF089520915B032430B0
:1013D00009F01FC0FC014489558966897789452B2E
:1013E000462B472BB1F086818F708093E900809166
:1013F000E80082FF0EC03091F3002091F200932F9D
:1014000080E0822B892B41F48091E8008B778093D8
:10141000E80020E030E007C09091F3008091F200F6
:10142000392F20E0282BC901089520915B03243037
:1014300019F02FEF3FEF2EC0FC01448955896689D2
:101440007789452B462B472BA1F386818F7080939C
:10145000E9008091E80082FFECCF3091F300209109
:10146000F200932F80E0822B892B21F02091F10054
:1014700030E002C02FEF3FEF5091F3004091F200B7
:10148000952F80E0842B892B29F48091E8008B77BD
:101490008093E800C90108950895CF93DF93EC018C
:1014A0008091E80083FFA7C0888190E020916003CD
:1014B000309161032817390709F09DC080915D03C1
:1014C000813261F020F4803209F095C03DC0823253
:1014D00009F46DC0833209F08EC07DC080915C0339
:1014E000813A09F088C08091E800877F8093E80006
:1014F0008091E80080FFFCCF4C895D896E897F89EF
:101500004093F100BB27A72F962F852F8093F100E2
:10151000CB01AA27BB278093F100472F55276627C9
:1015200077274093F100888D8093F100898D809317
:10153000F1008A8D8093F1008091E8008E7780938E
:10154000E800DF91CF91BECA80915C03813209F03F
:1015500052C08091E800877F8093E80005C08091A9
:101560005B03882309F447C08091E80082FFF7CF2E
:101570003091F1002091F1009091F1008091F10003
:101580003C8B2D8B9E8B8F8B8091F100888F80916F
:10159000F100898F8091F1008A8F8091E8008B772C
:1015A0008093E8008FDACE01DF91CF9175CF8091E3
:1015B0005C03813201F58091E800877F8093E80029
:1015C00081DA80915E0390915F03998B888BCE01C5
:1015D000DF91CF9161CF80915C03813261F4809182
:1015E000E800877F8093E8006DDA60915E03CE01AA
:1015F000DF91CF9151CFDF91CF91089594EA9093ED
:10160000BC0024E6629FB0011124615071099B0166
:1016100040E054EA1DC09091BC0097FF13C0909128
:10162000B900987F903169F0983319F0983021F41F
:1016300008C05093BC000AC084E08093BC0081E0E5
:10164000089541E09AE19A95F1F700C021503109DF
:101650002F3F9FEF390721F40BC0232B21F008C047
:101660004423C9F2FACF84E08093BC0082E008955D
:101670008093BB0084E88093BC000EC02091BC0026
:10168000CB01019727FF03C0672BB1F009C02AE106
:101690002A95F1F700C0BC016F3F8FEF780771F713
:1016A0008091B900887F883149F0803439F084E92D
:1016B0008093BC0084E0089583E0089580E008955D
:1016C0008093BB0084E88093BC008091BC0087FFBE
:1016D000FCCF9091B900987F81E0983209F080E0CA
:1016E0000895FB019F01E8944230BCF04532ACF410
:1016F0004A3029F497FB1EF4909581959F4F642FF3
:1017000077271ED0805D8A330CF0895D8193CB01F1
:101710000097A9F716F45DE251931082C90100C049
:10172000DC01FC01672F71917723E1F7329704C048
:101730007C916D9370836291AE17BF07C8F30895D3
:10174000AA1BBB1B51E107C0AA1FBB1FA617B707E7
:1017500010F0A61BB70B881F991F5A95A9F7809503
:0C1760009095BC01CD010895F894FFCFD6
:10176C000083100000010410000001820800000139
:10177C000000000000000000000000526563656975
:10178C0076656420570A0052656365697665642046
:10179C00520A00526563656976656420410A0052FD
:1017AC006563656976656420650A00436F756E74C0
:1017BC003A20005245435620427566666572206693
:1017CC0072656520636F756E743A200053454E4404
:1017DC0020427566666572206672656520636F755A
:1017EC006E743A2000747970653A200061646472FA
:1017FC006573733A2000577269746520696865785F
:02180C000A00D0
:00000001FF
